:020000040800F2
:10000000000400200D0100086D0100086D010008CA
:100010006D0100086D0100086D010008000000007E
:100020000000000000000000000000006D0100085A
:100030006D010008000000006D0100086D0100085E
:100040006D0100086D0100086D0100086D010008D8
:100050006D0100086D0100086D0100086D010008C8
:100060006D0100086D0100086D0100086D010008B8
:100070006D0100086D0100086D0100086D010008A8
:100080006D0100086D0100086D0100086D01000898
:100090006D0100086D0100086D0100086D01000888
:1000A0006D0100086D0100086D0100086D01000878
:1000B0006D0100086D0100086D0100086D01000868
:1000C0006D0100086D0100086D0100086D01000858
:1000D0006D0100086D0100086D0100086D01000848
:1000E0006D0100086D0100086D01000800000000AE
:1000F0000000000000000000000000000000000000
:1001000000000000000000005FF808F180B582B038
:1001100000AF114B7B60114B3B6007E07A68131D09
:100120007B603B68191D396012681A603B680C4A95
:100130009342F3D30B480C494FF000028842B8BFFA
:1001400040F8042BFADB00F015F800F0E3F800BFEC
:100150000837BD4680BD00BF7C03000800000020BA
:1001600000000020000000200000002080B400AF4C
:10017000FEE7000080B500AF154B1B68144A43F042
:1001800001031360124B5A681149124B13404B6024
:100190000F4B1B680E4A23F0847323F480331360E3
:1001A0000B4B1B680A4A23F480231360084B5B68DF
:1001B000074A23F4FE035360054B4FF41F029A6075
:1001C00000F00CF8044B4FF000629A6000BF80BD55
:1001D000001002400000FFF800ED00E080B500AF25
:1001E00000F002F800BF80BD80B483B000AF0023F0
:1001F0007B6000233B603A4B1B68394A43F48033F1
:100200001360374B1B6803F400333B607B6801339A
:100210007B603B68002B03D17B68B3F5A06FF0D106
:100220002F4B1B6803F40033002B02D001233B60EB
:1002300001E000233B603B68012B4BD1294B1B683D
:10024000284A43F010031360264B1B68254A23F00D
:1002500003031360234B1B68224A43F0020313601D
:100260001F4B1F4A5B6853601D4B1D4A5B68536000
:100270001B4B5B681A4A43F480635360184B5B68FE
:10028000174A23F47C135360154B5B68144A43F4FC
:10029000E8135360124B1B68114A43F080731360DC
:1002A00000BF0F4B1B6803F00073002BF9D00C4B01
:1002B0005B680B4A23F003035360094B5B68084AF1
:1002C00043F00203536000BF054B5B6803F00C036F
:1002D000082BF9D100BF0C37BD4680BC704700BF6A
:1002E000001002400020024080B485B000AF78606A
:1002F0000023FB6004E000BF00BFFB680133FB602C
:10030000FB687A689A42F6D800BF00BF1437BD4632
:1003100080BC704780B500AF154B9B69144A43F011
:1003200001039361124B9B69114A43F010039361DF
:10033000104B5B680F4A23F4400353600D4B5B681E
:100340000C4A43F4801353600A4BDB68094A43F4B8
:100350000053D3600848FFF7C7FF064BDB68054A28
:1003600023F40053D3600448FFF7BEFFECE700BF5F
:0C037000001002400010014040420F004D
:040000050800010DE1
:00000001FF
